:060000000A128A110C280F
:10000800FE00030EF1000A08F2000A128A11932872
:100018000A128A110F28F801F901FA01FB0183017C
:100028000A128A1117280A128A1142210A128A1101
:1000380077288312031389018501772806308312F4
:100048000313890003300A128A1101210A128A1146
:100058008312031385007728023083120313890063
:1000680002300A128A1101210A128A11831203131B
:100078008500772883120313890101300A128A1137
:1000880001210A128A11831203138500772801308F
:1000980083120313890000300A128A1101210A12FF
:1000A8008A118312031385007728073083120313FC
:1000B800890078080A128A1101210A128A1183120A
:1000C800031385007803031D6A286B286D2886159D
:1000D800772802307806031D7228732875280616BB
:1000E8007728861106127908F600F7017708003A92
:1000F80003197F2859287608003A03191D28013A60
:1001080003192228033A03193028013A03193E2813
:10011800073A03194B2859280A128A110C280B1C74
:1001280096289728D9288312031306189C289D28F7
:10013800A628FB01FB0AF901FA018701880186114B
:100148000612F8018618A928AA28BE287A080319D1
:10015800AE28AF28BE280708F00070078700871F61
:10016800B628B728BE28FA01F801F80A0530F000C9
:100178007008F9000619C128C228D8287A08031976
:10018800C628C728D8280808F00070078800881FE4
:10019800CE28CF28D828FA010230F0007008F800DD
:1001A8000530F0007008F9000B10831203130C1CC3
:1001B800DE28DF28FA287B080319E328E428F52835
:1001C8000130F0007008F90704307902031CED28AB
:1001D800EE28F528FB010130880001308700FA017C
:1001E800FA0A85308F00EE308E000C1072088A00F3
:1001F800710E8300FE0E7E0E0900F50019293F30AE
:100208004129063041295B3041294F304129663068
:1002180041296D3041297D304129073041297F30FE
:10022800412967304129003041297508F300F4015C
:100238007408003A0319212917297308003A031989
:100248000329013A03190529033A03190729013A31
:1002580003190929073A03190B29013A03190D292A
:10026800033A03190F29013A031911290F3A0319FF
:100278001329013A031915291729080083160317AA
:100288008801890183160313850187018801890183
:10029800860106148614061581130730950083120B
:1002A80003138501860187018801890183160313D9
:1002B8000F140F088F3940388F008B170B178B15C9
:1002C8000C140B10831203130C100730831603133E
:1002D80096000B1083120313901030309004101303
:1002E800101485308F00EE308E000C10FB01FA01DF
:0402F800F901080000
:04400E00D420FF3F7C
:00000001FF
